{"contracts/UniswapV3Twap.sol":{"UniswapV3Twap":{"abi":[{"inputs":[{"internalType":"uint256","name":"_size","type":"uint256"}],"stateMutability":"nonpayable","type":"constructor"},{"inputs":[{"internalType":"uint128","name":"amountIn","type":"uint128"},{"internalType":"uint32","name":"secondsAgo","type":"uint32"}],"name":"estimateAmountOut","outputs":[{"internalType":"uint256","name":"amountOut","type":"uint256"}],"stateMutability":"view","type":"function"},{"inputs":[],"name":"factory","outputs":[{"internalType":"address","name":"","type":"address"}],"stateMutability":"view","type":"function"},{"inputs":[{"internalType":"uint256","name":"len","type":"uint256"}],"name":"getOracle","outputs":[{"internalType":"uint256[]","name":"","type":"uint256[]"}],"stateMutability":"view","type":"function"},{"inputs":[],"name":"getOracleSingle","outputs":[{"internalType":"uint256","name":"","type":"uint256"}],"stateMutability":"view","type":"function"},{"inputs":[],"name":"length","outputs":[{"internalType":"uint256","name":"","type":"uint256"}],"stateMutability":"view","type":"function"},{"inputs":[],"name":"oracle","outputs":[{"internalType":"uint256","name":"first","type":"uint256"},{"internalType":"uint256","name":"last","type":"uint256"},{"internalType":"uint256","name":"size","type":"uint256"}],"stateMutability":"view","type":"function"},{"inputs":[],"name":"pool","outputs":[{"internalType":"address","name":"","type":"address"}],"stateMutability":"view","type":"function"},{"inputs":[],"name":"token0","outputs":[{"internalType":"address","name":"","type":"address"}],"stateMutability":"view","type":"function"},{"inputs":[],"name":"token0_goerli","outputs":[{"internalType":"address","name":"","type":"address"}],"stateMutability":"view","type":"function"},{"inputs":[],"name":"token0_sepolia","outputs":[{"internalType":"address","name":"","type":"address"}],"stateMutability":"view","type":"function"},{"inputs":[],"name":"token1","outputs":[{"internalType":"address","name":"","type":"address"}],"stateMutability":"view","type":"function"},{"inputs":[],"name":"token1_sepolia","outputs":[{"internalType":"address","name":"","type":"address"}],"stateMutability":"view","type":"function"},{"inputs":[],"name":"updateOrcale","outputs":[],"stateMutability":"nonpayable","type":"function"}],"evm":{"bytecode":{"linkReferences":{},"object":"61014060405273b4fbf271143f4fbf7b91a5ded31805e42b2208d673ffffffffffffffffffffffffffffffffffffffff1660809073ffffffffffffffffffffffffffffffffffffffff1660601b81525073fff9976782d46cc05630d1f6ebab18b2324d6b1473ffffffffffffffffffffffffffffffffffffffff1660a09073ffffffffffffffffffffffffffffffffffffffff1660601b815250731f9840a85d5af5bf1d1762f925bdaddc4201f98473ffffffffffffffffffffffffffffffffffffffff1660c09073ffffffffffffffffffffffffffffffffffffffff1660601b81525073c02aaa39b223fe8d0a0e5c4f27ead9083c756cc273ffffffffffffffffffffffffffffffffffffffff1660e09073ffffffffffffffffffffffffffffffffffffffff1660601b815250737ea2be2df7ba6e54b1a9c70676f668455e329d2973ffffffffffffffffffffffffffffffffffffffff166101009073ffffffffffffffffffffffffffffffffffffffff1660601b815250731f98431c8ad98523631ae4a59f267346ea31f98473ffffffffffffffffffffffffffffffffffffffff166101209073ffffffffffffffffffffffffffffffffffffffff1660601b815250600a600060146101000a81548163ffffffff021916908363ffffffff1602179055503480156101f157600080fd5b506040516116423803806116428339818101604052602081101561021457600080fd5b810190808051906020019092919050505073224cc4e5b50036108c1d862442365054600c260c6000806101000a81548173ffffffffffffffffffffffffffffffffffffffff021916908373ffffffffffffffffffffffffffffffffffffffff160217905550600180600101819055506000600160020181905550806001600301819055505060805160601c60a05160601c60c05160601c60e05160601c6101005160601c6101205160601c6113446102fe600039806106c85250806106ec52508061039b52508061051c52806105a05250806104fb52806105c452508061071052506113446000f3fe608060405234801561001057600080fd5b50600436106100cf5760003560e01c80632a5773fb1161008c578063c45a015511610066578063c45a0155146102df578063d21220a714610313578063e4b9644714610347578063e736cd7f1461037b576100cf565b80632a5773fb1461027557806335bd8ea6146102a95780637dc0d1d0146102b3576100cf565b80630dfe1681146100d457806310a9de60146101085780631135bd361461018b57806316f0115b146101ef5780631f7b6d32146102235780631fa3944f14610241575b600080fd5b6100dc610399565b604051808273ffffffffffffffffffffffffffffffffffffffff16815260200191505060405180910390f35b6101346004803603602081101561011e57600080fd5b81019080803590602001909291905050506103bd565b6040518080602001828103825283818151815260200191508051906020019060200280838360005b8381101561017757808201518184015260208101905061015c565b505050509050019250505060405180910390f35b6101d9600480360360408110156101a157600080fd5b8101908080356fffffffffffffffffffffffffffffffff169060200190929190803563ffffffff1690602001909291905050506104c4565b6040518082815260200191505060405180910390f35b6101f7610549565b604051808273ffffffffffffffffffffffffffffffffffffffff16815260200191505060405180910390f35b61022b61056d565b6040518082815260200191505060405180910390f35b61024961059e565b604051808273ffffffffffffffffffffffffffffffffffffffff16815260200191505060405180910390f35b61027d6105c2565b604051808273ffffffffffffffffffffffffffffffffffffffff16815260200191505060405180910390f35b6102b16105e6565b005b6102bb6106ae565b60405180848152602001838152602001828152602001935050505060405180910390f35b6102e76106c6565b604051808273ffffffffffffffffffffffffffffffffffffffff16815260200191505060405180910390f35b61031b6106ea565b604051808273ffffffffffffffffffffffffffffffffffffffff16815260200191505060405180910390f35b61034f61070e565b604051808273ffffffffffffffffffffffffffffffffffffffff16815260200191505060405180910390f35b610383610732565b6040518082815260200191505060405180910390f35b7f000000000000000000000000000000000000000000000000000000000000000081565b60606103c761056d565b82111561041f576040517f08c379a00000000000000000000000000000000000000000000000000000000081526004018080602001828103825260358152602001806112da6035913960400191505060405180910390fd5b60008267ffffffffffffffff8111801561043857600080fd5b506040519080825280602002602001820160405280156104675781602001602082028036833780820191505090505b50905060005b838110156104ba5760016000016000600180015483018152602001908152602001600020600101548282815181106104a157fe5b602002602001018181525050808060010191505061046d565b5080915050919050565b6000806104f160008054906101000a900473ffffffffffffffffffffffffffffffffffffffff1684610754565b50905061054081857f00000000000000000000000000000000000000000000000000000000000000007f0000000000000000000000000000000000000000000000000000000000000000610bc1565b91505092915050565b60008054906101000a900473ffffffffffffffffffffffffffffffffffffffff1681565b600060018001546001600201541015610589576000905061059b565b60018060010154600160020154030190505b90565b7f000000000000000000000000000000000000000000000000000000000000000081565b7f000000000000000000000000000000000000000000000000000000000000000081565b6001600301546105f461056d565b14156106365760016000016000600180016000815480929190600101919050558152602001908152602001600020600080820160009055600182016000905550505b604051806040016040528042815260200161066b670de0b6b3a7640000600060149054906101000a900463ffffffff166104c4565b8152506001600001600060016002016000815460010191905081905581526020019081526020016000206000820151816000015560208201518160010155905050565b60018060010154908060020154908060030154905083565b7f000000000000000000000000000000000000000000000000000000000000000081565b7f000000000000000000000000000000000000000000000000000000000000000081565b7f000000000000000000000000000000000000000000000000000000000000000081565b6000600160000160006001815260200190815260200160002060010154905090565b60008060008363ffffffff1614156107d4576040517f08c379a00000000000000000000000000000000000000000000000000000000081526004018080602001828103825260028152602001807f425000000000000000000000000000000000000000000000000000000000000081525060200191505060405180910390fd5b6000600267ffffffffffffffff811180156107ee57600080fd5b5060405190808252806020026020018201604052801561081d5781602001602082028036833780820191505090505b509050838160008151811061082e57fe5b602002602001019063ffffffff16908163ffffffff168152505060008160018151811061085757fe5b602002602001019063ffffffff16908163ffffffff16815250506000808673ffffffffffffffffffffffffffffffffffffffff1663883bdbfd846040518263ffffffff1660e01b81526004018080602001828103825283818151815260200191508051906020019060200280838360005b838110156108e35780820151818401526020810190506108c8565b505050509050019250505060006040518083038186803b15801561090657600080fd5b505afa15801561091a573d6000803e3d6000fd5b505050506040513d6000823e3d601f19601f82011682018060405250604081101561094457600080fd5b810190808051604051939291908464010000000082111561096457600080fd5b8382019150602082018581111561097a57600080fd5b825186602082028301116401000000008211171561099757600080fd5b8083526020830192505050908051906020019060200280838360005b838110156109ce5780820151818401526020810190506109b3565b50505050905001604052602001805160405193929190846401000000008211156109f757600080fd5b83820191506020820185811115610a0d57600080fd5b8251866020820283011164010000000082111715610a2a57600080fd5b8083526020830192505050908051906020019060200280838360005b83811015610a61578082015181840152602081019050610a46565b5050505090500160405250505091509150600082600081518110610a8157fe5b602002602001015183600181518110610a9657fe5b6020026020010151039050600082600081518110610ab057fe5b602002602001015183600181518110610ac557fe5b60200260200101510390508763ffffffff168260060b81610ae257fe5b05965060008260060b128015610b0e575060008863ffffffff168360060b81610b0757fe5b0760060b14155b15610b1d578680600190039750505b600073ffffffffffffffffffffffffffffffffffffffff80168963ffffffff1602905060208273ffffffffffffffffffffffffffffffffffffffff1677ffffffffffffffffffffffffffffffffffffffffffffffff16901b77ffffffffffffffffffffffffffffffffffffffffffffffff168177ffffffffffffffffffffffffffffffffffffffffffffffff1681610bb157fe5b0496505050505050509250929050565b600080610bcd86610dc4565b90506fffffffffffffffffffffffffffffffff80168173ffffffffffffffffffffffffffffffffffffffff1611610cde5760008173ffffffffffffffffffffffffffffffffffffffff168273ffffffffffffffffffffffffffffffffffffffff160290508373ffffffffffffffffffffffffffffffffffffffff168573ffffffffffffffffffffffffffffffffffffffff1610610c9f57610c9a7801000000000000000000000000000000000000000000000000876fffffffffffffffffffffffffffffffff16836111ff565b610cd6565b610cd581876fffffffffffffffffffffffffffffffff1678010000000000000000000000000000000000000000000000006111ff565b5b925050610dbb565b6000610d208273ffffffffffffffffffffffffffffffffffffffff168373ffffffffffffffffffffffffffffffffffffffff16680100000000000000006111ff565b90508373ffffffffffffffffffffffffffffffffffffffff168573ffffffffffffffffffffffffffffffffffffffff1610610d8857610d83700100000000000000000000000000000000876fffffffffffffffffffffffffffffffff16836111ff565b610db7565b610db681876fffffffffffffffffffffffffffffffff167001000000000000000000000000000000006111ff565b5b9250505b50949350505050565b60008060008360020b12610ddb578260020b610de3565b8260020b6000035b90507ffffffffffffffffffffffffffffffffffffffffffffffffffffffffffff2761860000360020b811115610e81576040517f08c379a00000000000000000000000000000000000000000000000000000000081526004018080602001828103825260018152602001807f540000000000000000000000000000000000000000000000000000000000000081525060200191505060405180910390fd5b600080600183161415610ea557700100000000000000000000000000000000610eb7565b6ffffcb933bd6fad37aa2d162d1a5940015b70ffffffffffffffffffffffffffffffffff16905060006002831614610ef15760806ffff97272373d413259a46990580e213a8202901c90505b60006004831614610f165760806ffff2e50f5f656932ef12357cf3c7fdcc8202901c90505b60006008831614610f3b5760806fffe5caca7e10e4e61c3624eaa0941cd08202901c90505b60006010831614610f605760806fffcb9843d60f6159c9db58835c9266448202901c90505b60006020831614610f855760806fff973b41fa98c081472e6896dfb254c08202901c90505b60006040831614610faa5760806fff2ea16466c96a3843ec78b326b528618202901c90505b60006080831614610fcf5760806ffe5dee046a99a2a811c461f1969c30538202901c90505b6000610100831614610ff55760806ffcbe86c7900a88aedcffc83b479aa3a48202901c90505b600061020083161461101b5760806ff987a7253ac413176f2b074cf7815e548202901c90505b60006104008316146110415760806ff3392b0822b70005940c7a398e4b70f38202901c90505b60006108008316146110675760806fe7159475a2c29b7443b29c7fa6e889d98202901c90505b600061100083161461108d5760806fd097f3bdfd2022b8845ad8f792aa58258202901c90505b60006120008316146110b35760806fa9f746462d870fdf8a65dc1f90e061e58202901c90505b60006140008316146110d95760806f70d869a156d2a1b890bb3df62baf32f78202901c90505b60006180008316146110ff5760806f31be135f97d08fd981231505542fcfa68202901c90505b6000620100008316146111265760806f09aa508b5b7a84e1c677de54f3e99bc98202901c90505b60006202000083161461114c5760806e5d6af8dedb81196699c329225ee6048202901c90505b6000620400008316146111715760806d2216e584f5fa1ea926041bedfe988202901c90505b6000620800008316146111945760806b048a170391f7dc42444e8fa28202901c90505b60008460020b13156111cd57807fffffffffffffffffffffffffffffffffffffffffffffffffffffffffffffffff816111c957fe5b0490505b600064010000000082816111dd57fe5b06146111ea5760016111ed565b60005b60ff16602082901c0192505050919050565b60008060008019858709858702925082811083820303915050600081141561123a576000841161122e57600080fd5b838204925050506112d2565b80841161124657600080fd5b600084868809905082811182039150808303925060008586600003169050808604955080840493506001818260000304019050808302841793506000600287600302189050808702600203810290508087026002038102905080870260020381029050808702600203810290508087026002038102905080870260020381029050808502955050505050505b939250505056fe6f7574707574206c656e677468206d757374206265206c657373207468616e2063757272656e74206f7261636c65206c656e677468a2646970667358221220f30ad0d998d077751ee1f1250642e1c953cba1110496ee37382a823565274cea64736f6c63430007060033","opcodes":"PUSH2 0x140 PUSH1 0x40 MSTORE PUSH20 0xB4FBF271143F4FBF7B91A5DED31805E42B2208D6 PUSH20 0xFFFFFFFFFFFFFFFFFFFFFFFFFFFFFFFFFFFFFFFF AND PUSH1 0x80 SWAP1 PUSH20 0xFFFFFFFFFFFFFFFFFFFFFFFFFFFFFFFFFFFFFFFF AND PUSH1 0x60 SHL DUP2 MSTORE POP PUSH20 0xFFF9976782D46CC05630D1F6EBAB18B2324D6B14 PUSH20 0xFFFFFFFFFFFFFFFFFFFFFFFFFFFFFFFFFFFFFFFF AND PUSH1 0xA0 SWAP1 PUSH20 0xFFFFFFFFFFFFFFFFFFFFFFFFFFFFFFFFFFFFFFFF AND PUSH1 0x60 SHL DUP2 MSTORE POP PUSH20 0x1F9840A85D5AF5BF1D1762F925BDADDC4201F984 PUSH20 0xFFFFFFFFFFFFFFFFFFFFFFFFFFFFFFFFFFFFFFFF AND PUSH1 0xC0 SWAP1 PUSH20 0xFFFFFFFFFFFFFFFFFFFFFFFFFFFFFFFFFFFFFFFF AND PUSH1 0x60 SHL DUP2 MSTORE POP PUSH20 0xC02AAA39B223FE8D0A0E5C4F27EAD9083C756CC2 PUSH20 0xFFFFFFFFFFFFFFFFFFFFFFFFFFFFFFFFFFFFFFFF AND PUSH1 0xE0 SWAP1 PUSH20 0xFFFFFFFFFFFFFFFFFFFFFFFFFFFFFFFFFFFFFFFF AND PUSH1 0x60 SHL DUP2 MSTORE POP PUSH20 0x7EA2BE2DF7BA6E54B1A9C70676F668455E329D29 PUSH20 0xFFFFFFFFFFFFFFFFFFFFFFFFFFFFFFFFFFFFFFFF AND PUSH2 0x100 SWAP1 PUSH20 0xFFFFFFFFFFFFFFFFFFFFFFFFFFFFFFFFFFFFFFFF AND PUSH1 0x60 SHL DUP2 MSTORE POP PUSH20 0x1F98431C8AD98523631AE4A59F267346EA31F984 PUSH20 0xFFFFFFFFFFFFFFFFFFFFFFFFFFFFFFFFFFFFFFFF AND PUSH2 0x120 SWAP1 PUSH20 0xFFFFFFFFFFFFFFFFFFFFFFFFFFFFFFFFFFFFFFFF AND PUSH1 0x60 SHL DUP2 MSTORE POP PUSH1 0xA PUSH1 0x0 PUSH1 0x14 PUSH2 0x100 EXP DUP2 SLOAD DUP2 PUSH4 0xFFFFFFFF MUL NOT AND SWAP1 DUP4 PUSH4 0xFFFFFFFF AND MUL OR SWAP1 SSTORE POP CALLVALUE DUP1 ISZERO PUSH2 0x1F1 JUMPI PUSH1 0x0 DUP1 REVERT JUMPDEST POP PUSH1 0x40 MLOAD PUSH2 0x1642 CODESIZE SUB DUP1 PUSH2 0x1642 DUP4 CODECOPY DUP2 DUP2 ADD PUSH1 0x40 MSTORE PUSH1 0x20 DUP2 LT ISZERO PUSH2 0x214 JUMPI PUSH1 0x0 DUP1 REVERT JUMPDEST DUP2 ADD SWAP1 DUP1 DUP1 MLOAD SWAP1 PUSH1 0x20 ADD SWAP1 SWAP3 SWAP2 SWAP1 POP POP POP PUSH20 0x224CC4E5B50036108C1D862442365054600C260C PUSH1 0x0 DUP1 PUSH2 0x100 EXP DUP2 SLOAD DUP2 PUSH20 0xFFFFFFFFFFFFFFFFFFFFFFFFFFFFFFFFFFFFFFFF MUL NOT AND SWAP1 DUP4 PUSH20 0xFFFFFFFFFFFFFFFFFFFFFFFFFFFFFFFFFFFFFFFF AND MUL OR SWAP1 SSTORE POP PUSH1 0x1 DUP1 PUSH1 0x1 ADD DUP2 SWAP1 SSTORE POP PUSH1 0x0 PUSH1 0x1 PUSH1 0x2 ADD DUP2 SWAP1 SSTORE POP DUP1 PUSH1 0x1 PUSH1 0x3 ADD DUP2 SWAP1 SSTORE POP POP PUSH1 0x80 MLOAD PUSH1 0x60 SHR PUSH1 0xA0 MLOAD PUSH1 0x60 SHR PUSH1 0xC0 MLOAD PUSH1 0x60 SHR PUSH1 0xE0 MLOAD PUSH1 0x60 SHR PUSH2 0x100 MLOAD PUSH1 0x60 SHR PUSH2 0x120 MLOAD PUSH1 0x60 SHR PUSH2 0x1344 PUSH2 0x2FE PUSH1 0x0 CODECOPY DUP1 PUSH2 0x6C8 MSTORE POP DUP1 PUSH2 0x6EC MSTORE POP DUP1 PUSH2 0x39B MSTORE POP DUP1 PUSH2 0x51C MSTORE DUP1 PUSH2 0x5A0 MSTORE POP DUP1 PUSH2 0x4FB MSTORE DUP1 PUSH2 0x5C4 MSTORE POP DUP1 PUSH2 0x710 MSTORE POP PUSH2 0x1344 PUSH1 0x0 RETURN INVALID PUSH1 0x80 PUSH1 0x40 MSTORE CALLVALUE DUP1 ISZERO PUSH2 0x10 JUMPI PUSH1 0x0 DUP1 REVERT JUMPDEST POP PUSH1 0x4 CALLDATASIZE LT PUSH2 0xCF JUMPI PUSH1 0x0 CALLDATALOAD PUSH1 0xE0 SHR DUP1 PUSH4 0x2A5773FB GT PUSH2 0x8C JUMPI DUP1 PUSH4 0xC45A0155 GT PUSH2 0x66 JUMPI DUP1 PUSH4 0xC45A0155 EQ PUSH2 0x2DF JUMPI DUP1 PUSH4 0xD21220A7 EQ PUSH2 0x313 JUMPI DUP1 PUSH4 0xE4B96447 EQ PUSH2 0x347 JUMPI DUP1 PUSH4 0xE736CD7F EQ PUSH2 0x37B JUMPI PUSH2 0xCF JUMP JUMPDEST DUP1 PUSH4 0x2A5773FB EQ PUSH2 0x275 JUMPI DUP1 PUSH4 0x35BD8EA6 EQ PUSH2 0x2A9 JUMPI DUP1 PUSH4 0x7DC0D1D0 EQ PUSH2 0x2B3 JUMPI PUSH2 0xCF JUMP JUMPDEST DUP1 PUSH4 0xDFE1681 EQ PUSH2 0xD4 JUMPI DUP1 PUSH4 0x10A9DE60 EQ PUSH2 0x108 JUMPI DUP1 PUSH4 0x1135BD36 EQ PUSH2 0x18B JUMPI DUP1 PUSH4 0x16F0115B EQ PUSH2 0x1EF JUMPI DUP1 PUSH4 0x1F7B6D32 EQ PUSH2 0x223 JUMPI DUP1 PUSH4 0x1FA3944F EQ PUSH2 0x241 JUMPI JUMPDEST PUSH1 0x0 DUP1 REVERT JUMPDEST PUSH2 0xDC PUSH2 0x399 JUMP JUMPDEST PUSH1 0x40 MLOAD DUP1 DUP3 PUSH20 0xFFFFFFFFFFFFFFFFFFFFFFFFFFFFFFFFFFFFFFFF AND DUP2 MSTORE PUSH1 0x20 ADD SWAP2 POP POP PUSH1 0x40 MLOAD DUP1 SWAP2 SUB SWAP1 RETURN JUMPDEST PUSH2 0x134 PUSH1 0x4 DUP1 CALLDATASIZE SUB PUSH1 0x20 DUP2 LT ISZERO PUSH2 0x11E JUMPI PUSH1 0x0 DUP1 REVERT JUMPDEST DUP2 ADD SWAP1 DUP1 DUP1 CALLDATALOAD SWAP1 PUSH1 0x20 ADD SWAP1 SWAP3 SWAP2 SWAP1 POP POP POP PUSH2 0x3BD JUMP JUMPDEST PUSH1 0x40 MLOAD DUP1 DUP1 PUSH1 0x20 ADD DUP3 DUP2 SUB DUP3 MSTORE DUP4 DUP2 DUP2 MLOAD DUP2 MSTORE PUSH1 0x20 ADD SWAP2 POP DUP1 MLOAD SWAP1 PUSH1 0x20 ADD SWAP1 PUSH1 0x20 MUL DUP1 DUP4 DUP4 PUSH1 0x0 JUMPDEST DUP4 DUP2 LT ISZERO PUSH2 0x177 JUMPI DUP1 DUP3 ADD MLOAD DUP2 DUP5 ADD MSTORE PUSH1 0x20 DUP2 ADD SWAP1 POP PUSH2 0x15C JUMP JUMPDEST POP POP POP POP SWAP1 POP ADD SWAP3 POP POP POP PUSH1 0x40 MLOAD DUP1 SWAP2 SUB SWAP1 RETURN JUMPDEST PUSH2 0x1D9 PUSH1 0x4 DUP1 CALLDATASIZE SUB PUSH1 0x40 DUP2 LT ISZERO PUSH2 0x1A1 JUMPI PUSH1 0x0 DUP1 REVERT JUMPDEST DUP2 ADD SWAP1 DUP1 DUP1 CALLDATALOAD PUSH16 0xFFFFFFFFFFFFFFFFFFFFFFFFFFFFFFFF AND SWAP1 PUSH1 0x20 ADD SWAP1 SWAP3 SWAP2 SWAP1 DUP1 CALLDATALOAD PUSH4 0xFFFFFFFF AND SWAP1 PUSH1 0x20 ADD SWAP1 SWAP3 SWAP2 SWAP1 POP POP POP PUSH2 0x4C4 JUMP JUMPDEST PUSH1 0x40 MLOAD DUP1 DUP3 DUP2 MSTORE PUSH1 0x20 ADD SWAP2 POP POP PUSH1 0x40 MLOAD DUP1 SWAP2 SUB SWAP1 RETURN JUMPDEST PUSH2 0x1F7 PUSH2 0x549 JUMP JUMPDEST PUSH1 0x40 MLOAD DUP1 DUP3 PUSH20 0xFFFFFFFFFFFFFFFFFFFFFFFFFFFFFFFFFFFFFFFF AND DUP2 MSTORE PUSH1 0x20 ADD SWAP2 POP POP PUSH1 0x40 MLOAD DUP1 SWAP2 SUB SWAP1 RETURN JUMPDEST PUSH2 0x22B PUSH2 0x56D JUMP JUMPDEST PUSH1 0x40 MLOAD DUP1 DUP3 DUP2 MSTORE PUSH1 0x20 ADD SWAP2 POP POP PUSH1 0x40 MLOAD DUP1 SWAP2 SUB SWAP1 RETURN JUMPDEST PUSH2 0x249 PUSH2 0x59E JUMP JUMPDEST PUSH1 0x40 MLOAD DUP1 DUP3 PUSH20 0xFFFFFFFFFFFFFFFFFFFFFFFFFFFFFFFFFFFFFFFF AND DUP2 MSTORE PUSH1 0x20 ADD SWAP2 POP POP PUSH1 0x40 MLOAD DUP1 SWAP2 SUB SWAP1 RETURN JUMPDEST PUSH2 0x27D PUSH2 0x5C2 JUMP JUMPDEST PUSH1 0x40 MLOAD DUP1 DUP3 PUSH20 0xFFFFFFFFFFFFFFFFFFFFFFFFFFFFFFFFFFFFFFFF AND DUP2 MSTORE PUSH1 0x20 ADD SWAP2 POP POP PUSH1 0x40 MLOAD DUP1 SWAP2 SUB SWAP1 RETURN JUMPDEST PUSH2 0x2B1 PUSH2 0x5E6 JUMP JUMPDEST STOP JUMPDEST PUSH2 0x2BB PUSH2 0x6AE JUMP JUMPDEST PUSH1 0x40 MLOAD DUP1 DUP5 DUP2 MSTORE PUSH1 0x20 ADD DUP4 DUP2 MSTORE PUSH1 0x20 ADD DUP3 DUP2 MSTORE PUSH1 0x20 ADD SWAP4 POP POP POP POP PUSH1 0x40 MLOAD DUP1 SWAP2 SUB SWAP1 RETURN JUMPDEST PUSH2 0x2E7 PUSH2 0x6C6 JUMP JUMPDEST PUSH1 0x40 MLOAD DUP1 DUP3 PUSH20 0xFFFFFFFFFFFFFFFFFFFFFFFFFFFFFFFFFFFFFFFF AND DUP2 MSTORE PUSH1 0x20 ADD SWAP2 POP POP PUSH1 0x40 MLOAD DUP1 SWAP2 SUB SWAP1 RETURN JUMPDEST PUSH2 0x31B PUSH2 0x6EA JUMP JUMPDEST PUSH1 0x40 MLOAD DUP1 DUP3 PUSH20 0xFFFFFFFFFFFFFFFFFFFFFFFFFFFFFFFFFFFFFFFF AND DUP2 MSTORE PUSH1 0x20 ADD SWAP2 POP POP PUSH1 0x40 MLOAD DUP1 SWAP2 SUB SWAP1 RETURN JUMPDEST PUSH2 0x34F PUSH2 0x70E JUMP JUMPDEST PUSH1 0x40 MLOAD DUP1 DUP3 PUSH20 0xFFFFFFFFFFFFFFFFFFFFFFFFFFFFFFFFFFFFFFFF AND DUP2 MSTORE PUSH1 0x20 ADD SWAP2 POP POP PUSH1 0x40 MLOAD DUP1 SWAP2 SUB SWAP1 RETURN JUMPDEST PUSH2 0x383 PUSH2 0x732 JUMP JUMPDEST PUSH1 0x40 MLOAD DUP1 DUP3 DUP2 MSTORE PUSH1 0x20 ADD SWAP2 POP POP PUSH1 0x40 MLOAD DUP1 SWAP2 SUB SWAP1 RETURN JUMPDEST PUSH32 0x0 DUP2 JUMP JUMPDEST PUSH1 0x60 PUSH2 0x3C7 PUSH2 0x56D JUMP JUMPDEST DUP3 GT ISZERO PUSH2 0x41F JUMPI PUSH1 0x40 MLOAD PUSH32 0x8C379A000000000000000000000000000000000000000000000000000000000 DUP2 MSTORE PUSH1 0x4 ADD DUP1 DUP1 PUSH1 0x20 ADD DUP3 DUP2 SUB DUP3 MSTORE PUSH1 0x35 DUP2 MSTORE PUSH1 0x20 ADD DUP1 PUSH2 0x12DA PUSH1 0x35 SWAP2 CODECOPY PUSH1 0x40 ADD SWAP2 POP POP PUSH1 0x40 MLOAD DUP1 SWAP2 SUB SWAP1 REVERT JUMPDEST PUSH1 0x0 DUP3 PUSH8 0xFFFFFFFFFFFFFFFF DUP2 GT DUP1 ISZERO PUSH2 0x438 JUMPI PUSH1 0x0 DUP1 REVERT JUMPDEST POP PUSH1 0x40 MLOAD SWAP1 DUP1 DUP3 MSTORE DUP1 PUSH1 0x20 MUL PUSH1 0x20 ADD DUP3 ADD PUSH1 0x40 MSTORE DUP1 ISZERO PUSH2 0x467 JUMPI DUP2 PUSH1 0x20 ADD PUSH1 0x20 DUP3 MUL DUP1 CALLDATASIZE DUP4 CALLDATACOPY DUP1 DUP3 ADD SWAP2 POP POP SWAP1 POP JUMPDEST POP SWAP1 POP PUSH1 0x0 JUMPDEST DUP4 DUP2 LT ISZERO PUSH2 0x4BA JUMPI PUSH1 0x1 PUSH1 0x0 ADD PUSH1 0x0 PUSH1 0x1 DUP1 ADD SLOAD DUP4 ADD DUP2 MSTORE PUSH1 0x20 ADD SWAP1 DUP2 MSTORE PUSH1 0x20 ADD PUSH1 0x0 KECCAK256 PUSH1 0x1 ADD SLOAD DUP3 DUP3 DUP2 MLOAD DUP2 LT PUSH2 0x4A1 JUMPI INVALID JUMPDEST PUSH1 0x20 MUL PUSH1 0x20 ADD ADD DUP2 DUP2 MSTORE POP POP DUP1 DUP1 PUSH1 0x1 ADD SWAP2 POP POP PUSH2 0x46D JUMP JUMPDEST POP DUP1 SWAP2 POP POP SWAP2 SWAP1 POP JUMP JUMPDEST PUSH1 0x0 DUP1 PUSH2 0x4F1 PUSH1 0x0 DUP1 SLOAD SWAP1 PUSH2 0x100 EXP SWAP1 DIV PUSH20 0xFFFFFFFFFFFFFFFFFFFFFFFFFFFFFFFFFFFFFFFF AND DUP5 PUSH2 0x754 JUMP JUMPDEST POP SWAP1 POP PUSH2 0x540 DUP2 DUP6 PUSH32 0x0 PUSH32 0x0 PUSH2 0xBC1 JUMP JUMPDEST SWAP2 POP POP SWAP3 SWAP2 POP POP JUMP JUMPDEST PUSH1 0x0 DUP1 SLOAD SWAP1 PUSH2 0x100 EXP SWAP1 DIV PUSH20 0xFFFFFFFFFFFFFFFFFFFFFFFFFFFFFFFFFFFFFFFF AND DUP2 JUMP JUMPDEST PUSH1 0x0 PUSH1 0x1 DUP1 ADD SLOAD PUSH1 0x1 PUSH1 0x2 ADD SLOAD LT ISZERO PUSH2 0x589 JUMPI PUSH1 0x0 SWAP1 POP PUSH2 0x59B JUMP JUMPDEST PUSH1 0x1 DUP1 PUSH1 0x1 ADD SLOAD PUSH1 0x1 PUSH1 0x2 ADD SLOAD SUB ADD SWAP1 POP JUMPDEST SWAP1 JUMP JUMPDEST PUSH32 0x0 DUP2 JUMP JUMPDEST PUSH32 0x0 DUP2 JUMP JUMPDEST PUSH1 0x1 PUSH1 0x3 ADD SLOAD PUSH2 0x5F4 PUSH2 0x56D JUMP JUMPDEST EQ ISZERO PUSH2 0x636 JUMPI PUSH1 0x1 PUSH1 0x0 ADD PUSH1 0x0 PUSH1 0x1 DUP1 ADD PUSH1 0x0 DUP2 SLOAD DUP1 SWAP3 SWAP2 SWAP1 PUSH1 0x1 ADD SWAP2 SWAP1 POP SSTORE DUP2 MSTORE PUSH1 0x20 ADD SWAP1 DUP2 MSTORE PUSH1 0x20 ADD PUSH1 0x0 KECCAK256 PUSH1 0x0 DUP1 DUP3 ADD PUSH1 0x0 SWAP1 SSTORE PUSH1 0x1 DUP3 ADD PUSH1 0x0 SWAP1 SSTORE POP POP JUMPDEST PUSH1 0x40 MLOAD DUP1 PUSH1 0x40 ADD PUSH1 0x40 MSTORE DUP1 TIMESTAMP DUP2 MSTORE PUSH1 0x20 ADD PUSH2 0x66B PUSH8 0xDE0B6B3A7640000 PUSH1 0x0 PUSH1 0x14 SWAP1 SLOAD SWAP1 PUSH2 0x100 EXP SWAP1 DIV PUSH4 0xFFFFFFFF AND PUSH2 0x4C4 JUMP JUMPDEST DUP2 MSTORE POP PUSH1 0x1 PUSH1 0x0 ADD PUSH1 0x0 PUSH1 0x1 PUSH1 0x2 ADD PUSH1 0x0 DUP2 SLOAD PUSH1 0x1 ADD SWAP2 SWAP1 POP DUP2 SWAP1 SSTORE DUP2 MSTORE PUSH1 0x20 ADD SWAP1 DUP2 MSTORE PUSH1 0x20 ADD PUSH1 0x0 KECCAK256 PUSH1 0x0 DUP3 ADD MLOAD DUP2 PUSH1 0x0 ADD SSTORE PUSH1 0x20 DUP3 ADD MLOAD DUP2 PUSH1 0x1 ADD SSTORE SWAP1 POP POP JUMP JUMPDEST PUSH1 0x1 DUP1 PUSH1 0x1 ADD SLOAD SWAP1 DUP1 PUSH1 0x2 ADD SLOAD SWAP1 DUP1 PUSH1 0x3 ADD SLOAD SWAP1 POP DUP4 JUMP JUMPDEST PUSH32 0x0 DUP2 JUMP JUMPDEST PUSH32 0x0 DUP2 JUMP JUMPDEST PUSH32 0x0 DUP2 JUMP JUMPDEST PUSH1 0x0 PUSH1 0x1 PUSH1 0x0 ADD PUSH1 0x0 PUSH1 0x1 DUP2 MSTORE PUSH1 0x20 ADD SWAP1 DUP2 MSTORE PUSH1 0x20 ADD PUSH1 0x0 KECCAK256 PUSH1 0x1 ADD SLOAD SWAP1 POP SWAP1 JUMP JUMPDEST PUSH1 0x0 DUP1 PUSH1 0x0 DUP4 PUSH4 0xFFFFFFFF AND EQ ISZERO PUSH2 0x7D4 JUMPI PUSH1 0x40 MLOAD PUSH32 0x8C379A000000000000000000000000000000000000000000000000000000000 DUP2 MSTORE PUSH1 0x4 ADD DUP1 DUP1 PUSH1 0x20 ADD DUP3 DUP2 SUB DUP3 MSTORE PUSH1 0x2 DUP2 MSTORE PUSH1 0x20 ADD DUP1 PUSH32 0x4250000000000000000000000000000000000000000000000000000000000000 DUP2 MSTORE POP PUSH1 0x20 ADD SWAP2 POP POP PUSH1 0x40 MLOAD DUP1 SWAP2 SUB SWAP1 REVERT JUMPDEST PUSH1 0x0 PUSH1 0x2 PUSH8 0xFFFFFFFFFFFFFFFF DUP2 GT DUP1 ISZERO PUSH2 0x7EE JUMPI PUSH1 0x0 DUP1 REVERT JUMPDEST POP PUSH1 0x40 MLOAD SWAP1 DUP1 DUP3 MSTORE DUP1 PUSH1 0x20 MUL PUSH1 0x20 ADD DUP3 ADD PUSH1 0x40 MSTORE DUP1 ISZERO PUSH2 0x81D JUMPI DUP2 PUSH1 0x20 ADD PUSH1 0x20 DUP3 MUL DUP1 CALLDATASIZE DUP4 CALLDATACOPY DUP1 DUP3 ADD SWAP2 POP POP SWAP1 POP JUMPDEST POP SWAP1 POP DUP4 DUP2 PUSH1 0x0 DUP2 MLOAD DUP2 LT PUSH2 0x82E JUMPI INVALID JUMPDEST PUSH1 0x20 MUL PUSH1 0x20 ADD ADD SWAP1 PUSH4 0xFFFFFFFF AND SWAP1 DUP2 PUSH4 0xFFFFFFFF AND DUP2 MSTORE POP POP PUSH1 0x0 DUP2 PUSH1 0x1 DUP2 MLOAD DUP2 LT PUSH2 0x857 JUMPI INVALID JUMPDEST PUSH1 0x20 MUL PUSH1 0x20 ADD ADD SWAP1 PUSH4 0xFFFFFFFF AND SWAP1 DUP2 PUSH4 0xFFFFFFFF AND DUP2 MSTORE POP POP PUSH1 0x0 DUP1 DUP7 PUSH20 0xFFFFFFFFFFFFFFFFFFFFFFFFFFFFFFFFFFFFFFFF AND PUSH4 0x883BDBFD DUP5 PUSH1 0x40 MLOAD DUP3 PUSH4 0xFFFFFFFF AND PUSH1 0xE0 SHL DUP2 MSTORE PUSH1 0x4 ADD DUP1 DUP1 PUSH1 0x20 ADD DUP3 DUP2 SUB DUP3 MSTORE DUP4 DUP2 DUP2 MLOAD DUP2 MSTORE PUSH1 0x20 ADD SWAP2 POP DUP1 MLOAD SWAP1 PUSH1 0x20 ADD SWAP1 PUSH1 0x20 MUL DUP1 DUP4 DUP4 PUSH1 0x0 JUMPDEST DUP4 DUP2 LT ISZERO PUSH2 0x8E3 JUMPI DUP1 DUP3 ADD MLOAD DUP2 DUP5 ADD MSTORE PUSH1 0x20 DUP2 ADD SWAP1 POP PUSH2 0x8C8 JUMP JUMPDEST POP POP POP POP SWAP1 POP ADD SWAP3 POP POP POP PUSH1 0x0 PUSH1 0x40 MLOAD DUP1 DUP4 SUB DUP2 DUP7 DUP1 EXTCODESIZE ISZERO DUP1 ISZERO PUSH2 0x906 JUMPI PUSH1 0x0 DUP1 REVERT JUMPDEST POP GAS STATICCALL ISZERO DUP1 ISZERO PUSH2 0x91A JUMPI RETURNDATASIZE PUSH1 0x0 DUP1 RETURNDATACOPY RETURNDATASIZE PUSH1 0x0 REVERT JUMPDEST POP POP POP POP PUSH1 0x40 MLOAD RETURNDATASIZE PUSH1 0x0 DUP3 RETURNDATACOPY RETURNDATASIZE PUSH1 0x1F NOT PUSH1 0x1F DUP3 ADD AND DUP3 ADD DUP1 PUSH1 0x40 MSTORE POP PUSH1 0x40 DUP2 LT ISZERO PUSH2 0x944 JUMPI PUSH1 0x0 DUP1 REVERT JUMPDEST DUP2 ADD SWAP1 DUP1 DUP1 MLOAD PUSH1 0x40 MLOAD SWAP4 SWAP3 SWAP2 SWAP1 DUP5 PUSH5 0x100000000 DUP3 GT ISZERO PUSH2 0x964 JUMPI PUSH1 0x0 DUP1 REVERT JUMPDEST DUP4 DUP3 ADD SWAP2 POP PUSH1 0x20 DUP3 ADD DUP6 DUP2 GT ISZERO PUSH2 0x97A JUMPI PUSH1 0x0 DUP1 REVERT JUMPDEST DUP3 MLOAD DUP7 PUSH1 0x20 DUP3 MUL DUP4 ADD GT PUSH5 0x100000000 DUP3 GT OR ISZERO PUSH2 0x997 JUMPI PUSH1 0x0 DUP1 REVERT JUMPDEST DUP1 DUP4 MSTORE PUSH1 0x20 DUP4 ADD SWAP3 POP POP POP SWAP1 DUP1 MLOAD SWAP1 PUSH1 0x20 ADD SWAP1 PUSH1 0x20 MUL DUP1 DUP4 DUP4 PUSH1 0x0 JUMPDEST DUP4 DUP2 LT ISZERO PUSH2 0x9CE JUMPI DUP1 DUP3 ADD MLOAD DUP2 DUP5 ADD MSTORE PUSH1 0x20 DUP2 ADD SWAP1 POP PUSH2 0x9B3 JUMP JUMPDEST POP POP POP POP SWAP1 POP ADD PUSH1 0x40 MSTORE PUSH1 0x20 ADD DUP1 MLOAD PUSH1 0x40 MLOAD SWAP4 SWAP3 SWAP2 SWAP1 DUP5 PUSH5 0x100000000 DUP3 GT ISZERO PUSH2 0x9F7 JUMPI PUSH1 0x0 DUP1 REVERT JUMPDEST DUP4 DUP3 ADD SWAP2 POP PUSH1 0x20 DUP3 ADD DUP6 DUP2 GT ISZERO PUSH2 0xA0D JUMPI PUSH1 0x0 DUP1 REVERT JUMPDEST DUP3 MLOAD DUP7 PUSH1 0x20 DUP3 MUL DUP4 ADD GT PUSH5 0x100000000 DUP3 GT OR ISZERO PUSH2 0xA2A JUMPI PUSH1 0x0 DUP1 REVERT JUMPDEST DUP1 DUP4 MSTORE PUSH1 0x20 DUP4 ADD SWAP3 POP POP POP SWAP1 DUP1 MLOAD SWAP1 PUSH1 0x20 ADD SWAP1 PUSH1 0x20 MUL DUP1 DUP4 DUP4 PUSH1 0x0 JUMPDEST DUP4 DUP2 LT ISZERO PUSH2 0xA61 JUMPI DUP1 DUP3 ADD MLOAD DUP2 DUP5 ADD MSTORE PUSH1 0x20 DUP2 ADD SWAP1 POP PUSH2 0xA46 JUMP JUMPDEST POP POP POP POP SWAP1 POP ADD PUSH1 0x40 MSTORE POP POP POP SWAP2 POP SWAP2 POP PUSH1 0x0 DUP3 PUSH1 0x0 DUP2 MLOAD DUP2 LT PUSH2 0xA81 JUMPI INVALID JUMPDEST PUSH1 0x20 MUL PUSH1 0x20 ADD ADD MLOAD DUP4 PUSH1 0x1 DUP2 MLOAD DUP2 LT PUSH2 0xA96 JUMPI INVALID JUMPDEST PUSH1 0x20 MUL PUSH1 0x20 ADD ADD MLOAD SUB SWAP1 POP PUSH1 0x0 DUP3 PUSH1 0x0 DUP2 MLOAD DUP2 LT PUSH2 0xAB0 JUMPI INVALID JUMPDEST PUSH1 0x20 MUL PUSH1 0x20 ADD ADD MLOAD DUP4 PUSH1 0x1 DUP2 MLOAD DUP2 LT PUSH2 0xAC5 JUMPI INVALID JUMPDEST PUSH1 0x20 MUL PUSH1 0x20 ADD ADD MLOAD SUB SWAP1 POP DUP8 PUSH4 0xFFFFFFFF AND DUP3 PUSH1 0x6 SIGNEXTEND DUP2 PUSH2 0xAE2 JUMPI INVALID JUMPDEST SDIV SWAP7 POP PUSH1 0x0 DUP3 PUSH1 0x6 SIGNEXTEND SLT DUP1 ISZERO PUSH2 0xB0E JUMPI POP PUSH1 0x0 DUP9 PUSH4 0xFFFFFFFF AND DUP4 PUSH1 0x6 SIGNEXTEND DUP2 PUSH2 0xB07 JUMPI INVALID JUMPDEST SMOD PUSH1 0x6 SIGNEXTEND EQ ISZERO JUMPDEST ISZERO PUSH2 0xB1D JUMPI DUP7 DUP1 PUSH1 0x1 SWAP1 SUB SWAP8 POP POP JUMPDEST PUSH1 0x0 PUSH20 0xFFFFFFFFFFFFFFFFFFFFFFFFFFFFFFFFFFFFFFFF DUP1 AND DUP10 PUSH4 0xFFFFFFFF AND MUL SWAP1 POP PUSH1 0x20 DUP3 PUSH20 0xFFFFFFFFFFFFFFFFFFFFFFFFFFFFFFFFFFFFFFFF AND PUSH24 0xFFFFFFFFFFFFFFFFFFFFFFFFFFFFFFFFFFFFFFFFFFFFFFFF AND SWAP1 SHL PUSH24 0xFFFFFFFFFFFFFFFFFFFFFFFFFFFFFFFFFFFFFFFFFFFFFFFF AND DUP2 PUSH24 0xFFFFFFFFFFFFFFFFFFFFFFFFFFFFFFFFFFFFFFFFFFFFFFFF AND DUP2 PUSH2 0xBB1 JUMPI INVALID JUMPDEST DIV SWAP7 POP POP POP POP POP POP POP SWAP3 POP SWAP3 SWAP1 POP JUMP JUMPDEST PUSH1 0x0 DUP1 PUSH2 0xBCD DUP7 PUSH2 0xDC4 JUMP JUMPDEST SWAP1 POP PUSH16 0xFFFFFFFFFFFFFFFFFFFFFFFFFFFFFFFF DUP1 AND DUP2 PUSH20 0xFFFFFFFFFFFFFFFFFFFFFFFFFFFFFFFFFFFFFFFF AND GT PUSH2 0xCDE JUMPI PUSH1 0x0 DUP2 PUSH20 0xFFFFFFFFFFFFFFFFFFFFFFFFFFFFFFFFFFFFFFFF AND DUP3 PUSH20 0xFFFFFFFFFFFFFFFFFFFFFFFFFFFFFFFFFFFFFFFF AND MUL SWAP1 POP DUP4 PUSH20 0xFFFFFFFFFFFFFFFFFFFFFFFFFFFFFFFFFFFFFFFF AND DUP6 PUSH20 0xFFFFFFFFFFFFFFFFFFFFFFFFFFFFFFFFFFFFFFFF AND LT PUSH2 0xC9F JUMPI PUSH2 0xC9A PUSH25 0x1000000000000000000000000000000000000000000000000 DUP8 PUSH16 0xFFFFFFFFFFFFFFFFFFFFFFFFFFFFFFFF AND DUP4 PUSH2 0x11FF JUMP JUMPDEST PUSH2 0xCD6 JUMP JUMPDEST PUSH2 0xCD5 DUP2 DUP8 PUSH16 0xFFFFFFFFFFFFFFFFFFFFFFFFFFFFFFFF AND PUSH25 0x1000000000000000000000000000000000000000000000000 PUSH2 0x11FF JUMP JUMPDEST JUMPDEST SWAP3 POP POP PUSH2 0xDBB JUMP JUMPDEST PUSH1 0x0 PUSH2 0xD20 DUP3 PUSH20 0xFFFFFFFFFFFFFFFFFFFFFFFFFFFFFFFFFFFFFFFF AND DUP4 PUSH20 0xFFFFFFFFFFFFFFFFFFFFFFFFFFFFFFFFFFFFFFFF AND PUSH9 0x10000000000000000 PUSH2 0x11FF JUMP JUMPDEST SWAP1 POP DUP4 PUSH20 0xFFFFFFFFFFFFFFFFFFFFFFFFFFFFFFFFFFFFFFFF AND DUP6 PUSH20 0xFFFFFFFFFFFFFFFFFFFFFFFFFFFFFFFFFFFFFFFF AND LT PUSH2 0xD88 JUMPI PUSH2 0xD83 PUSH17 0x100000000000000000000000000000000 DUP8 PUSH16 0xFFFFFFFFFFFFFFFFFFFFFFFFFFFFFFFF AND DUP4 PUSH2 0x11FF JUMP JUMPDEST PUSH2 0xDB7 JUMP JUMPDEST PUSH2 0xDB6 DUP2 DUP8 PUSH16 0xFFFFFFFFFFFFFFFFFFFFFFFFFFFFFFFF AND PUSH17 0x100000000000000000000000000000000 PUSH2 0x11FF JUMP JUMPDEST JUMPDEST SWAP3 POP POP JUMPDEST POP SWAP5 SWAP4 POP POP POP POP JUMP JUMPDEST PUSH1 0x0 DUP1 PUSH1 0x0 DUP4 PUSH1 0x2 SIGNEXTEND SLT PUSH2 0xDDB JUMPI DUP3 PUSH1 0x2 SIGNEXTEND PUSH2 0xDE3 JUMP JUMPDEST DUP3 PUSH1 0x2 SIGNEXTEND PUSH1 0x0 SUB JUMPDEST SWAP1 POP PUSH32 0xFFFFFFFFFFFFFFFFFFFFFFFFFFFFFFFFFFFFFFFFFFFFFFFFFFFFFFFFFFF27618 PUSH1 0x0 SUB PUSH1 0x2 SIGNEXTEND DUP2 GT ISZERO PUSH2 0xE81 JUMPI PUSH1 0x40 MLOAD PUSH32 0x8C379A000000000000000000000000000000000000000000000000000000000 DUP2 MSTORE PUSH1 0x4 ADD DUP1 DUP1 PUSH1 0x20 ADD DUP3 DUP2 SUB DUP3 MSTORE PUSH1 0x1 DUP2 MSTORE PUSH1 0x20 ADD DUP1 PUSH32 0x5400000000000000000000000000000000000000000000000000000000000000 DUP2 MSTORE POP PUSH1 0x20 ADD SWAP2 POP POP PUSH1 0x40 MLOAD DUP1 SWAP2 SUB SWAP1 REVERT JUMPDEST PUSH1 0x0 DUP1 PUSH1 0x1 DUP4 AND EQ ISZERO PUSH2 0xEA5 JUMPI PUSH17 0x100000000000000000000000000000000 PUSH2 0xEB7 JUMP JUMPDEST PUSH16 0xFFFCB933BD6FAD37AA2D162D1A594001 JUMPDEST PUSH17 0xFFFFFFFFFFFFFFFFFFFFFFFFFFFFFFFFFF AND SWAP1 POP PUSH1 0x0 PUSH1 0x2 DUP4 AND EQ PUSH2 0xEF1 JUMPI PUSH1 0x80 PUSH16 0xFFF97272373D413259A46990580E213A DUP3 MUL SWAP1 SHR SWAP1 POP JUMPDEST PUSH1 0x0 PUSH1 0x4 DUP4 AND EQ PUSH2 0xF16 JUMPI PUSH1 0x80 PUSH16 0xFFF2E50F5F656932EF12357CF3C7FDCC DUP3 MUL SWAP1 SHR SWAP1 POP JUMPDEST PUSH1 0x0 PUSH1 0x8 DUP4 AND EQ PUSH2 0xF3B JUMPI PUSH1 0x80 PUSH16 0xFFE5CACA7E10E4E61C3624EAA0941CD0 DUP3 MUL SWAP1 SHR SWAP1 POP JUMPDEST PUSH1 0x0 PUSH1 0x10 DUP4 AND EQ PUSH2 0xF60 JUMPI PUSH1 0x80 PUSH16 0xFFCB9843D60F6159C9DB58835C926644 DUP3 MUL SWAP1 SHR SWAP1 POP JUMPDEST PUSH1 0x0 PUSH1 0x20 DUP4 AND EQ PUSH2 0xF85 JUMPI PUSH1 0x80 PUSH16 0xFF973B41FA98C081472E6896DFB254C0 DUP3 MUL SWAP1 SHR SWAP1 POP JUMPDEST PUSH1 0x0 PUSH1 0x40 DUP4 AND EQ PUSH2 0xFAA JUMPI PUSH1 0x80 PUSH16 0xFF2EA16466C96A3843EC78B326B52861 DUP3 MUL SWAP1 SHR SWAP1 POP JUMPDEST PUSH1 0x0 PUSH1 0x80 DUP4 AND EQ PUSH2 0xFCF JUMPI PUSH1 0x80 PUSH16 0xFE5DEE046A99A2A811C461F1969C3053 DUP3 MUL SWAP1 SHR SWAP1 POP JUMPDEST PUSH1 0x0 PUSH2 0x100 DUP4 AND EQ PUSH2 0xFF5 JUMPI PUSH1 0x80 PUSH16 0xFCBE86C7900A88AEDCFFC83B479AA3A4 DUP3 MUL SWAP1 SHR SWAP1 POP JUMPDEST PUSH1 0x0 PUSH2 0x200 DUP4 AND EQ PUSH2 0x101B JUMPI PUSH1 0x80 PUSH16 0xF987A7253AC413176F2B074CF7815E54 DUP3 MUL SWAP1 SHR SWAP1 POP JUMPDEST PUSH1 0x0 PUSH2 0x400 DUP4 AND EQ PUSH2 0x1041 JUMPI PUSH1 0x80 PUSH16 0xF3392B0822B70005940C7A398E4B70F3 DUP3 MUL SWAP1 SHR SWAP1 POP JUMPDEST PUSH1 0x0 PUSH2 0x800 DUP4 AND EQ PUSH2 0x1067 JUMPI PUSH1 0x80 PUSH16 0xE7159475A2C29B7443B29C7FA6E889D9 DUP3 MUL SWAP1 SHR SWAP1 POP JUMPDEST PUSH1 0x0 PUSH2 0x1000 DUP4 AND EQ PUSH2 0x108D JUMPI PUSH1 0x80 PUSH16 0xD097F3BDFD2022B8845AD8F792AA5825 DUP3 MUL SWAP1 SHR SWAP1 POP JUMPDEST PUSH1 0x0 PUSH2 0x2000 DUP4 AND EQ PUSH2 0x10B3 JUMPI PUSH1 0x80 PUSH16 0xA9F746462D870FDF8A65DC1F90E061E5 DUP3 MUL SWAP1 SHR SWAP1 POP JUMPDEST PUSH1 0x0 PUSH2 0x4000 DUP4 AND EQ PUSH2 0x10D9 JUMPI PUSH1 0x80 PUSH16 0x70D869A156D2A1B890BB3DF62BAF32F7 DUP3 MUL SWAP1 SHR SWAP1 POP JUMPDEST PUSH1 0x0 PUSH2 0x8000 DUP4 AND EQ PUSH2 0x10FF JUMPI PUSH1 0x80 PUSH16 0x31BE135F97D08FD981231505542FCFA6 DUP3 MUL SWAP1 SHR SWAP1 POP JUMPDEST PUSH1 0x0 PUSH3 0x10000 DUP4 AND EQ PUSH2 0x1126 JUMPI PUSH1 0x80 PUSH16 0x9AA508B5B7A84E1C677DE54F3E99BC9 DUP3 MUL SWAP1 SHR SWAP1 POP JUMPDEST PUSH1 0x0 PUSH3 0x20000 DUP4 AND EQ PUSH2 0x114C JUMPI PUSH1 0x80 PUSH15 0x5D6AF8DEDB81196699C329225EE604 DUP3 MUL SWAP1 SHR SWAP1 POP JUMPDEST PUSH1 0x0 PUSH3 0x40000 DUP4 AND EQ PUSH2 0x1171 JUMPI PUSH1 0x80 PUSH14 0x2216E584F5FA1EA926041BEDFE98 DUP3 MUL SWAP1 SHR SWAP1 POP JUMPDEST PUSH1 0x0 PUSH3 0x80000 DUP4 AND EQ PUSH2 0x1194 JUMPI PUSH1 0x80 PUSH12 0x48A170391F7DC42444E8FA2 DUP3 MUL SWAP1 SHR SWAP1 POP JUMPDEST PUSH1 0x0 DUP5 PUSH1 0x2 SIGNEXTEND SGT ISZERO PUSH2 0x11CD JUMPI DUP1 PUSH32 0xFFFFFFFFFFFFFFFFFFFFFFFFFFFFFFFFFFFFFFFFFFFFFFFFFFFFFFFFFFFFFFFF DUP2 PUSH2 0x11C9 JUMPI INVALID JUMPDEST DIV SWAP1 POP JUMPDEST PUSH1 0x0 PUSH5 0x100000000 DUP3 DUP2 PUSH2 0x11DD JUMPI INVALID JUMPDEST MOD EQ PUSH2 0x11EA JUMPI PUSH1 0x1 PUSH2 0x11ED JUMP JUMPDEST PUSH1 0x0 JUMPDEST PUSH1 0xFF AND PUSH1 0x20 DUP3 SWAP1 SHR ADD SWAP3 POP POP POP SWAP2 SWAP1 POP JUMP JUMPDEST PUSH1 0x0 DUP1 PUSH1 0x0 DUP1 NOT DUP6 DUP8 MULMOD DUP6 DUP8 MUL SWAP3 POP DUP3 DUP2 LT DUP4 DUP3 SUB SUB SWAP2 POP POP PUSH1 0x0 DUP2 EQ ISZERO PUSH2 0x123A JUMPI PUSH1 0x0 DUP5 GT PUSH2 0x122E JUMPI PUSH1 0x0 DUP1 REVERT JUMPDEST DUP4 DUP3 DIV SWAP3 POP POP POP PUSH2 0x12D2 JUMP JUMPDEST DUP1 DUP5 GT PUSH2 0x1246 JUMPI PUSH1 0x0 DUP1 REVERT JUMPDEST PUSH1 0x0 DUP5 DUP7 DUP9 MULMOD SWAP1 POP DUP3 DUP2 GT DUP3 SUB SWAP2 POP DUP1 DUP4 SUB SWAP3 POP PUSH1 0x0 DUP6 DUP7 PUSH1 0x0 SUB AND SWAP1 POP DUP1 DUP7 DIV SWAP6 POP DUP1 DUP5 DIV SWAP4 POP PUSH1 0x1 DUP2 DUP3 PUSH1 0x0 SUB DIV ADD SWAP1 POP DUP1 DUP4 MUL DUP5 OR SWAP4 POP PUSH1 0x0 PUSH1 0x2 DUP8 PUSH1 0x3 MUL XOR SWAP1 POP DUP1 DUP8 MUL PUSH1 0x2 SUB DUP2 MUL SWAP1 POP DUP1 DUP8 MUL PUSH1 0x2 SUB DUP2 MUL SWAP1 POP DUP1 DUP8 MUL PUSH1 0x2 SUB DUP2 MUL SWAP1 POP DUP1 DUP8 MUL PUSH1 0x2 SUB DUP2 MUL SWAP1 POP DUP1 DUP8 MUL PUSH1 0x2 SUB DUP2 MUL SWAP1 POP DUP1 DUP8 MUL PUSH1 0x2 SUB DUP2 MUL SWAP1 POP DUP1 DUP6 MUL SWAP6 POP POP POP POP POP POP JUMPDEST SWAP4 SWAP3 POP POP POP JUMP INVALID PUSH16 0x7574707574206C656E677468206D7573 PUSH21 0x206265206C657373207468616E2063757272656E74 KECCAK256 PUSH16 0x7261636C65206C656E677468A2646970 PUSH7 0x7358221220F30A 0xD0 0xD9 SWAP9 0xD0 PUSH24 0x751EE1F1250642E1C953CBA1110496EE37382A823565274C 0xEA PUSH5 0x736F6C6343 STOP SMOD MOD STOP CALLER "},"methodIdentifiers":{"estimateAmountOut(uint128,uint32)":"1135bd36","factory()":"c45a0155","getOracle(uint256)":"10a9de60","getOracleSingle()":"e736cd7f","length()":"1f7b6d32","oracle()":"7dc0d1d0","pool()":"16f0115b","token0()":"0dfe1681","token0_goerli()":"e4b96447","token0_sepolia()":"2a5773fb","token1()":"d21220a7","token1_sepolia()":"1fa3944f","updateOrcale()":"35bd8ea6"}}}}}