{
  "_format": "hh-sol-artifact-1",
  "contractName": "UniswapV3Twap",
  "sourceName": "contracts/UniswapV3Twap.sol",
  "abi": [
    {
      "inputs": [
        {
          "internalType": "uint256",
          "name": "_size",
          "type": "uint256"
        },
        {
          "internalType": "uint32",
          "name": "_interval",
          "type": "uint32"
        }
      ],
      "stateMutability": "nonpayable",
      "type": "constructor"
    },
    {
      "inputs": [
        {
          "internalType": "uint128",
          "name": "amountIn",
          "type": "uint128"
        },
        {
          "internalType": "uint32",
          "name": "secondsAgo",
          "type": "uint32"
        }
      ],
      "name": "estimateAmountOut",
      "outputs": [
        {
          "internalType": "uint256",
          "name": "amountOut",
          "type": "uint256"
        }
      ],
      "stateMutability": "view",
      "type": "function"
    },
    {
      "inputs": [],
      "name": "factory",
      "outputs": [
        {
          "internalType": "address",
          "name": "",
          "type": "address"
        }
      ],
      "stateMutability": "view",
      "type": "function"
    },
    {
      "inputs": [
        {
          "internalType": "uint256",
          "name": "len",
          "type": "uint256"
        }
      ],
      "name": "getOracle",
      "outputs": [
        {
          "components": [
            {
              "internalType": "uint256",
              "name": "time",
              "type": "uint256"
            },
            {
              "internalType": "uint256",
              "name": "price",
              "type": "uint256"
            }
          ],
          "internalType": "struct UniswapV3Twap.Price[]",
          "name": "",
          "type": "tuple[]"
        }
      ],
      "stateMutability": "view",
      "type": "function"
    },
    {
      "inputs": [],
      "name": "getOracleSingle",
      "outputs": [
        {
          "internalType": "uint256",
          "name": "",
          "type": "uint256"
        }
      ],
      "stateMutability": "view",
      "type": "function"
    },
    {
      "inputs": [],
      "name": "length",
      "outputs": [
        {
          "internalType": "uint256",
          "name": "",
          "type": "uint256"
        }
      ],
      "stateMutability": "view",
      "type": "function"
    },
    {
      "inputs": [],
      "name": "oracle",
      "outputs": [
        {
          "internalType": "uint256",
          "name": "first",
          "type": "uint256"
        },
        {
          "internalType": "uint256",
          "name": "last",
          "type": "uint256"
        },
        {
          "internalType": "uint256",
          "name": "size",
          "type": "uint256"
        }
      ],
      "stateMutability": "view",
      "type": "function"
    },
    {
      "inputs": [],
      "name": "pool",
      "outputs": [
        {
          "internalType": "address",
          "name": "",
          "type": "address"
        }
      ],
      "stateMutability": "view",
      "type": "function"
    },
    {
      "inputs": [],
      "name": "token0",
      "outputs": [
        {
          "internalType": "address",
          "name": "",
          "type": "address"
        }
      ],
      "stateMutability": "view",
      "type": "function"
    },
    {
      "inputs": [],
      "name": "token0_goerli",
      "outputs": [
        {
          "internalType": "address",
          "name": "",
          "type": "address"
        }
      ],
      "stateMutability": "view",
      "type": "function"
    },
    {
      "inputs": [],
      "name": "token0_sepolia",
      "outputs": [
        {
          "internalType": "address",
          "name": "",
          "type": "address"
        }
      ],
      "stateMutability": "view",
      "type": "function"
    },
    {
      "inputs": [],
      "name": "token1",
      "outputs": [
        {
          "internalType": "address",
          "name": "",
          "type": "address"
        }
      ],
      "stateMutability": "view",
      "type": "function"
    },
    {
      "inputs": [],
      "name": "token1_sepolia",
      "outputs": [
        {
          "internalType": "address",
          "name": "",
          "type": "address"
        }
      ],
      "stateMutability": "view",
      "type": "function"
    },
    {
      "inputs": [],
      "name": "updateOracle",
      "outputs": [],
      "stateMutability": "nonpayable",
      "type": "function"
    },
    {
      "inputs": [
        {
          "internalType": "uint256",
          "name": "_size",
          "type": "uint256"
        }
      ],
      "name": "updateSize",
      "outputs": [],
      "stateMutability": "nonpayable",
      "type": "function"
    }
  ],
  "bytecode": "0x61014060405273b4fbf271143f4fbf7b91a5ded31805e42b2208d673ffffffffffffffffffffffffffffffffffffffff1660809073ffffffffffffffffffffffffffffffffffffffff1660601b81525073fff9976782d46cc05630d1f6ebab18b2324d6b1473ffffffffffffffffffffffffffffffffffffffff1660a09073ffffffffffffffffffffffffffffffffffffffff1660601b815250731f9840a85d5af5bf1d1762f925bdaddc4201f98473ffffffffffffffffffffffffffffffffffffffff1660c09073ffffffffffffffffffffffffffffffffffffffff1660601b81525073c02aaa39b223fe8d0a0e5c4f27ead9083c756cc273ffffffffffffffffffffffffffffffffffffffff1660e09073ffffffffffffffffffffffffffffffffffffffff1660601b815250737ea2be2df7ba6e54b1a9c70676f668455e329d2973ffffffffffffffffffffffffffffffffffffffff166101009073ffffffffffffffffffffffffffffffffffffffff1660601b815250731f98431c8ad98523631ae4a59f267346ea31f98473ffffffffffffffffffffffffffffffffffffffff166101209073ffffffffffffffffffffffffffffffffffffffff1660601b815250348015620001d057600080fd5b50604051620019a1380380620019a18339818101604052810190620001f69190620002ce565b600082116200020457600080fd5b73224cc4e5b50036108c1d862442365054600c260c6000806101000a81548173ffffffffffffffffffffffffffffffffffffffff021916908373ffffffffffffffffffffffffffffffffffffffff1602179055506001806001018190555060006001600201819055508160016003018190555080600060146101000a81548163ffffffff021916908363ffffffff16021790555050506200035d565b600081519050620002b18162000329565b92915050565b600081519050620002c88162000343565b92915050565b60008060408385031215620002e257600080fd5b6000620002f285828601620002a0565b92505060206200030585828601620002b7565b9150509250929050565b6000819050919050565b600063ffffffff82169050919050565b62000334816200030f565b81146200034057600080fd5b50565b6200034e8162000319565b81146200035a57600080fd5b50565b60805160601c60a05160601c60c05160601c60e05160601c6101005160601c6101205160601c6115de620003c3600039806105195250806105575250806102a552508061043552806104b952508061041452806104dd52508061064352506115de6000f3fe608060405234801561001057600080fd5b50600436106100ea5760003560e01c80637dc0d1d01161008c578063d21220a711610066578063d21220a71461023f578063d6f124f01461025d578063e4b9644714610267578063e736cd7f14610285576100ea565b80637dc0d1d0146101e5578063c45a015514610205578063c758c88914610223576100ea565b806316f0115b116100c857806316f0115b1461016d5780631f7b6d321461018b5780631fa3944f146101a95780632a5773fb146101c7576100ea565b80630dfe1681146100ef57806310a9de601461010d5780631135bd361461013d575b600080fd5b6100f76102a3565b6040516101049190611402565b60405180910390f35b610127600480360381019061012291906112a1565b6102c7565b604051610134919061141d565b60405180910390f35b61015760048036038101906101529190611265565b6103dd565b604051610164919061145f565b60405180910390f35b610175610462565b6040516101829190611402565b60405180910390f35b610193610486565b6040516101a0919061145f565b60405180910390f35b6101b16104b7565b6040516101be9190611402565b60405180910390f35b6101cf6104db565b6040516101dc9190611402565b60405180910390f35b6101ed6104ff565b6040516101fc9392919061147a565b60405180910390f35b61020d610517565b60405161021a9190611402565b60405180910390f35b61023d600480360381019061023891906112a1565b61053b565b005b610247610555565b6040516102549190611402565b60405180910390f35b610265610579565b005b61026f610641565b60405161027c9190611402565b60405180910390f35b61028d610665565b60405161029a919061145f565b60405180910390f35b7f000000000000000000000000000000000000000000000000000000000000000081565b60606102d1610486565b821115610313576040517f08c379a000000000000000000000000000000000000000000000000000000000815260040161030a9061143f565b60405180910390fd5b60008267ffffffffffffffff8111801561032c57600080fd5b5060405190808252806020026020018201604052801561036657816020015b61035361120c565b81526020019060019003908161034b5790505b50905060005b838110156103d35760016000016000600180015483018152602001908152602001600020604051806040016040529081600082015481526020016001820154815250508282815181106103bb57fe5b6020026020010181905250808060010191505061036c565b5080915050919050565b60008061040a60008054906101000a900473ffffffffffffffffffffffffffffffffffffffff1684610687565b50905061045981857f00000000000000000000000000000000000000000000000000000000000000007f0000000000000000000000000000000000000000000000000000000000000000610af4565b91505092915050565b60008054906101000a900473ffffffffffffffffffffffffffffffffffffffff1681565b6000600180015460016002015410156104a257600090506104b4565b60018060010154600160020154030190505b90565b7f000000000000000000000000000000000000000000000000000000000000000081565b7f000000000000000000000000000000000000000000000000000000000000000081565b60018060010154908060020154908060030154905083565b7f000000000000000000000000000000000000000000000000000000000000000081565b6000811161054857600080fd5b8060016003018190555050565b7f000000000000000000000000000000000000000000000000000000000000000081565b600160030154610587610486565b14156105c95760016000016000600180016000815480929190600101919050558152602001908152602001600020600080820160009055600182016000905550505b60405180604001604052804281526020016105fe670de0b6b3a7640000600060149054906101000a900463ffffffff166103dd565b8152506001600001600060016002016000815460010191905081905581526020019081526020016000206000820151816000015560208201518160010155905050565b7f000000000000000000000000000000000000000000000000000000000000000081565b6000600160000160006001815260200190815260200160002060010154905090565b60008060008363ffffffff161415610707576040517f08c379a00000000000000000000000000000000000000000000000000000000081526004018080602001828103825260028152602001807f425000000000000000000000000000000000000000000000000000000000000081525060200191505060405180910390fd5b6000600267ffffffffffffffff8111801561072157600080fd5b506040519080825280602002602001820160405280156107505781602001602082028036833780820191505090505b509050838160008151811061076157fe5b602002602001019063ffffffff16908163ffffffff168152505060008160018151811061078a57fe5b602002602001019063ffffffff16908163ffffffff16815250506000808673ffffffffffffffffffffffffffffffffffffffff1663883bdbfd846040518263ffffffff1660e01b81526004018080602001828103825283818151815260200191508051906020019060200280838360005b838110156108165780820151818401526020810190506107fb565b505050509050019250505060006040518083038186803b15801561083957600080fd5b505afa15801561084d573d6000803e3d6000fd5b505050506040513d6000823e3d601f19601f82011682018060405250604081101561087757600080fd5b810190808051604051939291908464010000000082111561089757600080fd5b838201915060208201858111156108ad57600080fd5b82518660208202830111640100000000821117156108ca57600080fd5b8083526020830192505050908051906020019060200280838360005b838110156109015780820151818401526020810190506108e6565b505050509050016040526020018051604051939291908464010000000082111561092a57600080fd5b8382019150602082018581111561094057600080fd5b825186602082028301116401000000008211171561095d57600080fd5b8083526020830192505050908051906020019060200280838360005b83811015610994578082015181840152602081019050610979565b50505050905001604052505050915091506000826000815181106109b457fe5b6020026020010151836001815181106109c957fe5b60200260200101510390506000826000815181106109e357fe5b6020026020010151836001815181106109f857fe5b60200260200101510390508763ffffffff168260060b81610a1557fe5b05965060008260060b128015610a41575060008863ffffffff168360060b81610a3a57fe5b0760060b14155b15610a50578680600190039750505b600073ffffffffffffffffffffffffffffffffffffffff80168963ffffffff1602905060208273ffffffffffffffffffffffffffffffffffffffff1677ffffffffffffffffffffffffffffffffffffffffffffffff16901b77ffffffffffffffffffffffffffffffffffffffffffffffff168177ffffffffffffffffffffffffffffffffffffffffffffffff1681610ae457fe5b0496505050505050509250929050565b600080610b0086610cf7565b90506fffffffffffffffffffffffffffffffff80168173ffffffffffffffffffffffffffffffffffffffff1611610c115760008173ffffffffffffffffffffffffffffffffffffffff168273ffffffffffffffffffffffffffffffffffffffff160290508373ffffffffffffffffffffffffffffffffffffffff168573ffffffffffffffffffffffffffffffffffffffff1610610bd257610bcd7801000000000000000000000000000000000000000000000000876fffffffffffffffffffffffffffffffff1683611132565b610c09565b610c0881876fffffffffffffffffffffffffffffffff167801000000000000000000000000000000000000000000000000611132565b5b925050610cee565b6000610c538273ffffffffffffffffffffffffffffffffffffffff168373ffffffffffffffffffffffffffffffffffffffff1668010000000000000000611132565b90508373ffffffffffffffffffffffffffffffffffffffff168573ffffffffffffffffffffffffffffffffffffffff1610610cbb57610cb6700100000000000000000000000000000000876fffffffffffffffffffffffffffffffff1683611132565b610cea565b610ce981876fffffffffffffffffffffffffffffffff16700100000000000000000000000000000000611132565b5b9250505b50949350505050565b60008060008360020b12610d0e578260020b610d16565b8260020b6000035b90507ffffffffffffffffffffffffffffffffffffffffffffffffffffffffffff2761860000360020b811115610db4576040517f08c379a00000000000000000000000000000000000000000000000000000000081526004018080602001828103825260018152602001807f540000000000000000000000000000000000000000000000000000000000000081525060200191505060405180910390fd5b600080600183161415610dd857700100000000000000000000000000000000610dea565b6ffffcb933bd6fad37aa2d162d1a5940015b70ffffffffffffffffffffffffffffffffff16905060006002831614610e245760806ffff97272373d413259a46990580e213a8202901c90505b60006004831614610e495760806ffff2e50f5f656932ef12357cf3c7fdcc8202901c90505b60006008831614610e6e5760806fffe5caca7e10e4e61c3624eaa0941cd08202901c90505b60006010831614610e935760806fffcb9843d60f6159c9db58835c9266448202901c90505b60006020831614610eb85760806fff973b41fa98c081472e6896dfb254c08202901c90505b60006040831614610edd5760806fff2ea16466c96a3843ec78b326b528618202901c90505b60006080831614610f025760806ffe5dee046a99a2a811c461f1969c30538202901c90505b6000610100831614610f285760806ffcbe86c7900a88aedcffc83b479aa3a48202901c90505b6000610200831614610f4e5760806ff987a7253ac413176f2b074cf7815e548202901c90505b6000610400831614610f745760806ff3392b0822b70005940c7a398e4b70f38202901c90505b6000610800831614610f9a5760806fe7159475a2c29b7443b29c7fa6e889d98202901c90505b6000611000831614610fc05760806fd097f3bdfd2022b8845ad8f792aa58258202901c90505b6000612000831614610fe65760806fa9f746462d870fdf8a65dc1f90e061e58202901c90505b600061400083161461100c5760806f70d869a156d2a1b890bb3df62baf32f78202901c90505b60006180008316146110325760806f31be135f97d08fd981231505542fcfa68202901c90505b6000620100008316146110595760806f09aa508b5b7a84e1c677de54f3e99bc98202901c90505b60006202000083161461107f5760806e5d6af8dedb81196699c329225ee6048202901c90505b6000620400008316146110a45760806d2216e584f5fa1ea926041bedfe988202901c90505b6000620800008316146110c75760806b048a170391f7dc42444e8fa28202901c90505b60008460020b131561110057807fffffffffffffffffffffffffffffffffffffffffffffffffffffffffffffffff816110fc57fe5b0490505b6000640100000000828161111057fe5b061461111d576001611120565b60005b60ff16602082901c0192505050919050565b60008060008019858709858702925082811083820303915050600081141561116d576000841161116157600080fd5b83820492505050611205565b80841161117957600080fd5b600084868809905082811182039150808303925060008586600003169050808604955080840493506001818260000304019050808302841793506000600287600302189050808702600203810290508087026002038102905080870260020381029050808702600203810290508087026002038102905080870260020381029050808502955050505050505b9392505050565b604051806040016040528060008152602001600081525090565b60008135905061123581611563565b92915050565b60008135905061124a8161157a565b92915050565b60008135905061125f81611591565b92915050565b6000806040838503121561127857600080fd5b600061128685828601611226565b925050602061129785828601611250565b9150509250929050565b6000602082840312156112b357600080fd5b60006112c18482850161123b565b91505092915050565b60006112d683836113b5565b60408301905092915050565b6112eb816114fb565b82525050565b60006112fc826114c1565b61130681856114d9565b9350611311836114b1565b8060005b8381101561134257815161132988826112ca565b9750611334836114cc565b925050600181019050611315565b5085935050505092915050565b600061135c6035836114ea565b91507f6f7574707574206c656e677468206d757374206265206c657373207468616e2060008301527f63757272656e74206f7261636c65206c656e67746800000000000000000000006020830152604082019050919050565b6040820160008201516113cb60008501826113e4565b5060208201516113de60208501826113e4565b50505050565b6113ed81611549565b82525050565b6113fc81611549565b82525050565b600060208201905061141760008301846112e2565b92915050565b6000602082019050818103600083015261143781846112f1565b905092915050565b600060208201905081810360008301526114588161134f565b9050919050565b600060208201905061147460008301846113f3565b92915050565b600060608201905061148f60008301866113f3565b61149c60208301856113f3565b6114a960408301846113f3565b949350505050565b6000819050602082019050919050565b600081519050919050565b6000602082019050919050565b600082825260208201905092915050565b600082825260208201905092915050565b600061150682611529565b9050919050565b60006fffffffffffffffffffffffffffffffff82169050919050565b600073ffffffffffffffffffffffffffffffffffffffff82169050919050565b6000819050919050565b600063ffffffff82169050919050565b61156c8161150d565b811461157757600080fd5b50565b61158381611549565b811461158e57600080fd5b50565b61159a81611553565b81146115a557600080fd5b5056fea264697066735822122018cfeecf9c4165513ccef2c12b9e488c19ea1106bf2556109d0ed773e3fdf7e564736f6c63430007060033",
  "linkReferences": {},
  "deployedLinkReferences": {}
}